:02000000EC2EE4
:100DD800F2260D27592771278D27ED2E0313831629
:100DE800FF3085008601870188018E309F0003133C
:100DF80083128501860187018801A00181309F0047
:100E0800F527031383128601031383120710871033
:100E180008000313831281309F00EA27EA271F1571
:100E28001F19142F031383161E0803138312AE0011
:100E3800031383121E0803138312AF007D303A2771
:100E4800031383122C0803138312A00003138312C5
:100E58002B0803138312AE00AF0164303A27031343
:100E680083122C0803138312A100080003138312B2
:100E7800B000AB01AC01AD010830B1000310AB0DFF
:100E8800AC0DAD0D0310B00D031C522F2E08AB078F
:100E9800031855272F08AC070318AD0AB10B422FCA
:100EA8000800AC0A0319AD0A0800031383122008CE
:100EB8001B3C03196C2F031C672F622F031383122B
:100EC80007148710080003138312071087140800FB
:100ED80003138312071087100800031383122008D6
:100EE8008227A7002608B10003138312210882274E
:100EF800A9002608A8003108A6000800A601AE002F
:100F08000A302E02031C8B2FAE00A60A842F2E084F
:100F1800080003138312C830AA00C62703138312DC
:100F28002608D727CD270313831280308600EA27A7
:100F3800C627031383122708D727CD270313831245
:100F480008140313831240308600EA27C6270313C8
:100F580083122808D727CD27031383122030860051
:100F6800EA27C627031383122908D727CD27031397
:100F7800831210308600EA2703138312AA0B912FDD
:100F8800C6270800031383128601031383128801FE
:100F9800080003138312A3000310A30D23080313EF
:100FA80083128800080003138312A30007308A0005
:100FB8002308DF27080082073F3406345B344F34A8
:100FC80066346D347D3407347F346F3403138312F1
:100FD8005030A4000000000000000000A40BEE2F19
:100FE8000800031383123230A400FF30A500A50BBC
:080FF800FB2FA40BF92F0800E8
:02400E00723FFF
:00000001FF
