:02000000842F4B
:100EF4003F3406345B344F3466346D347D34073408
:100F04007F346F348B27A327B527C627D327F92728
:100F1400852F031383160130850003308800860172
:100F240087018E309F000313831281309F00850157
:100F34008801860187010810881007108710A60110
:100F44000800031383121F151F19A62F03138316FA
:100F54001E0803138312A2001E08A1002208A00089
:100F64000310A00C08000313831220081B3C031C6D
:100F7400C12FBC2F03138312081488100800031315
:100F8400831208108814080003138312A401200894
:100F9400A5000A302502031CD22FA500A40ACB2FDA
:100FA4000800031383123230A7002408F2278600B6
:100FB4000313831207148710F427031383122508DD
:100FC400F22786000313831207108714F4270313F0
:100FD4008312A70BD72F031383120710871008005F
:100FE40082077A2F0530A300A30BF62F0800031302
:0C0FF4008312FF30A300A30BFD2F0800A8
:02400E00723FFF
:00000001FF
